:100000000C9462000C948A000C948A000C948A0070
:100010000C948A000C948A000C948A000C948A0038
:100020000C948A000C948A000C948A000C948A0028
:100030000C948A000C948A000C948A000C948A0018
:100040000C9452040C948A000C94C2040C949C04EA
:100050000C948A000C948A000C948A000C948A00F8
:100060000C948A000C948A000000000023002600F3
:10007000290000000008000201000003040700003E
:1000800000000000000000000000250028002B00F8
:1000900000000000240027002A00040404040404D3
:1000A0000404020202020202030303030303010227
:1000B00004081020408001020408102001020408F6
:1000C0001020970511241FBECFEFD8E0DEBFCDBFB3
:1000D00011E0A0E0B1E0E8E9FBE002C005900D927C
:1000E000AC32B107D9F721E0ACE2B1E001C01D921A
:1000F000A23DB207E1F710E0C2E6D0E004C02197CC
:10010000FE010E94C405C136D107C9F70E94F4045C
:100110000C94CA050C94000090E0FC01E255FF4FDE
:10012000249186569F4FFC018491882399F090E09A
:10013000880F991FFC01E057FF4FA591B491FC0176
:10014000EA57FF4F859194918FB7F894EC91E22B89
:10015000EC938FBF0895833081F028F4813099F0BB
:100160008230A9F008958730A9F08830C9F0843032
:10017000B1F4809180008F7D03C0809180008F77E3
:1001800080938000089584B58F7784BD089584B5E9
:100190008F7DFBCF8091B0008F778093B000089562
:1001A0008091B0008F7DF9CFCF93DF93282F30E07F
:1001B000F901EE58FF4F8491F901E255FF4FD491B8
:1001C000F901E656FF4FC491CC23A1F081110E94A2
:1001D000AB00EC2FF0E0EE0FFF1FE859FF4FA591A9
:1001E000B491EC91ED2381E090E009F480E0DF919F
:1001F000CF91089580E090E0FACF1F93CF93DF93E3
:10020000282F30E0F901EE58FF4F8491F901E255B3
:10021000FF4FD491F901E656FF4FC491CC23A9F0CA
:10022000162F81110E94AB00EC2FF0E0EE0FFF1FA4
:10023000EA57FF4FA591B4918FB7F894EC91111143
:1002400008C0D095DE23DC938FBFDF91CF911F9143
:100250000895DE2BF8CFAF92BF92CF92DF92EF924C
:10026000FF920F931F93CF93DF936C017B018B0160
:10027000040F151FEB015E01AE18BF08C017D107B0
:1002800059F06991D601ED91FC910190F081E02D3A
:10029000C6010995892B79F7C501DF91CF911F918F
:1002A0000F91FF90EF90DF90CF90BF90AF900895A7
:1002B000FC01538D448D252F30E0842F90E0821B6C
:1002C000930B541710F0CF96089501970895FC01F1
:1002D000918D828D981761F0A28DAE0FBF2FB11D49
:1002E0005D968C91928D9F5F9F73928F90E00895A1
:1002F0008FEF9FEF0895FC01918D828D981731F05B
:10030000828DE80FF11D858D90E008958FEF9FEFAE
:100310000895FC01918D228D892F90E0805C9F4F84
:10032000821B91098F73992708958CE291E00E94B6
:10033000890121E0892B09F420E0822F089580E0D3
:1003400090E0892B29F00E94950181110C94000006
:100350000895FC01A48DA80FB92FB11DA35ABF4F5A
:100360002C91848D90E001968F739927848FA689B4
:10037000B7892C93A089B1898C91837080648C9308
:10038000938D848D981306C00288F389E02D8081B7
:100390008F7D80830895EF92FF920F931F93CF93E9
:1003A000DF93EC0181E0888F9B8D8C8D98131AC0B0
:1003B000E889F989808185FF15C09FB7F894EE8997
:1003C000FF896083E889F9898081837080648083F4
:1003D0009FBF81E090E0DF91CF911F910F91FF903F
:1003E000EF900895F62E0B8D10E00F5F1F4F0F73E7
:1003F0001127E02E8C8D8E110CC00FB607FCFACFA2
:10040000E889F989808185FFF5CFCE010E94A90195
:10041000F1CFEB8DEC0FFD2FF11DE35AFF4FF08272
:100420009FB7F8940B8FEA89FB8980818062CFCFD8
:10043000CF93DF93EC01888D8823B9F0AA89BB891B
:10044000E889F9898C9185FD03C0808186FD0DC006
:100450000FB607FCF7CF8C9185FFF2CF808185FF27
:10046000EDCFCE010E94A901E9CFDF91CF91089590
:10047000AC01FC018FEF9FEF70E09F01241B350B57
:10048000261737079CF42191822728E030E0DC0111
:10049000A170BB2796958795AB2B21F0A1E08A2709
:1004A000A0EA9A272150310991F7E7CF08954F929A
:1004B0005F926F927F928F929F92AF92BF92CF92F4
:1004C000DF92EF92FF920F931F93CF93DF93CDB7FD
:1004D000DEB7D2500FB6F894DEBF0FBECDBF4DB61B
:1004E0005EB610E06BE8E62EFF24F3948CE291E018
:1004F0000E9489016C01892B91F08CE291E00E94AD
:10050000670121E0210FE1E0F0E0EC0FFD1FE10FBA
:10051000F11D8083C7010197F1F7122FE7CF183043
:1005200008F4F5C00981013009F0F1C0E12EF12C89
:100530006EEF610FCE0101960E943802EFEFFFEFE0
:10054000EC0FFD1FEE0DFF1D2081FE01EE0DFF1DC6
:1005500030812327322723278217930709F0D7C03A
:100560008A81833009F4EFC028F58130B9F191E038
:10057000CF5FDE4F9883C150D1408068CE5FDE4FA1
:100580008883C250D140CD5FDE4F9883C350D140A5
:1005900063E0CE018F5F9E4F0E943802CC5FDE4F3A
:1005A0008883C450D140CB5FDE4F9883C550D14083
:1005B00015E08FC0853009F419C18630C1F62B8152
:1005C0003C813227232732272A30310508F09FC08B
:1005D000CF5FDE4F0883C150D14035C16DB67EB6C6
:1005E000EB80FC80FE24EF24FE240D811E81102769
:1005F000012710279701200F311F2B30310508F0FC
:1006000086C0CF5FDE4F8883C150D140CE5FDE4FC2
:100610008883C250D14081E0980127703327232B73
:1006200009F480E0980153E0369527955A95E1F753
:10063000820FCD5FDE4F8883C350D1402DB73EB7C8
:10064000281B31090FB6F8943EBF0FBE2DBF8DB7E2
:100650009EB701966C01F701EA5DFE4F7F019E0196
:100660002F5F3E4F59014C01800E911E32E0A30EC8
:10067000B11C8C149D0461F0F70181917F010E94EF
:10068000D400F60181936F01F50111828283EECFD0
:10069000F02EFF0C63E06F0DCE018F5F9E4F0E9426
:1006A0003802000F111FE4E0F1E0EC0FFD1FE00F36
:1006B000F11F808325E031E02C0F3D1F020F131F37
:1006C000F801908315E01F0D0FB6F8947EBE0FBEA3
:1006D0006DBE61E082E00E94FD0083E2E82EF12C15
:1006E000C7010197F1F7412F50E0BE016F5F7E4FC8
:1006F0008CE291E00E942B018CE291E00E941802B2
:10070000C7010197F1F760E082E00E94FD000FB69B
:10071000F8945EBE0FBE4DBEDE5F0FB6F894DEBF2E
:100720000FBECDBFDF91CF911F910F91FF90EF9042
:10073000DF90CF90BF90AF909F908F907F906F9001
:100740005F904F900895EB81FC81FE27EF27FE27F5
:10075000ED80FE80FE24EF24FE249F012E0D3F1D20
:100760002B303105A0F6CF5FDE4F0883C150D1405A
:10077000CE5FDE4F8883C250D1401E2D110FCD5F5A
:10078000DE4F1883C350D140EE0FFF1FE050FF4FE4
:10079000DE01AF5FBE4F1296EC14FD0469F080815C
:1007A0009181329611969C93119712968C93129781
:1007B0002FEFC21AD20AEFCF63E0610FCE018F5F35
:1007C0009E4F0E943802EE0CFF1CE4E0F1E0EC0FBB
:1007D000FD1FEE0DFF1D8083E5E0F1E0EC0FFD1F36
:1007E000EE0EFF1EF70190831B5F73CF8B819C8100
:1007F0009827892798270D811E8110270127102708
:100800008630910508F083CF0115110531F00115EF
:100810001F4F09F07CCF01E010E08A5D9E4FFC0184
:10082000F080602F8F2D0E94FD008F2D0E94D4003C
:100830000817190709F06BCF81E0CF5FDE4F88837F
:10084000C150D14085E0CE5FDE4F8883C250D14099
:100850008B81CD5FDE4F8883C350D1408C81CC5FCC
:10086000DE4F8883C450D1408D81CB5FDE4F8883BB
:10087000C550D1408E81CA5FDE4F8883C650D140BB
:1008800066E0CE018F5F9E4F0E943802C95FDE4F47
:100890008883C750D140C85FDE4F9883C850D1408D
:1008A00018E017CF1F920F920FB60F9211242F93BB
:1008B0003F938F939F93AF93BF938091CE0190917D
:1008C000CF01A091D001B091D1013091CD0123E0B1
:1008D000230F2D3758F50196A11DB11D2093CD0191
:1008E0008093CE019093CF01A093D001B093D1011A
:1008F0008091C9019091CA01A091CB01B091CC0126
:100900000196A11DB11D8093C9019093CA01A093C6
:10091000CB01B093CC01BF91AF919F918F913F914B
:100920002F910F900FBE0F901F90189526E8230F60
:100930000296A11DB11DD2CF1F920F920FB60F923A
:1009400011242F933F934F935F936F937F938F93D4
:100950009F93AF93BF93EF93FF938CE291E00E943C
:10096000A901FF91EF91BF91AF919F918F917F91DD
:100970006F915F914F913F912F910F900FBE0F900C
:100980001F9018951F920F920FB60F9211242F935C
:100990008F939F93EF93FF93E0913C01F0913D0182
:1009A0008081E0914201F091430182FD1BC0908162
:1009B000809145018F5F8F7320914601821741F02E
:1009C000E0914501F0E0E45DFE4F958F8093450195
:1009D000FF91EF919F918F912F910F900FBE0F90EC
:1009E0001F9018958081F4CF789484B5826084BD7F
:1009F00084B5816084BD85B5826085BD85B5816023
:100A000085BD80916E00816080936E0010928100A0
:100A1000809181008260809381008091810081605B
:100A2000809381008091800081608093800080911C
:100A3000B10084608093B1008091B00081608093A8
:100A4000B00080917A00846080937A0080917A006F
:100A5000826080937A0080917A00816080937A002E
:100A600080917A00806880937A001092C10082E0C1
:100A70000E948C0060E082E00E94FD00C6E2D1E0AE
:100A80008CE2E82E81E0F82E1991812F0E948C00D3
:100A900060E0812F0E94FD00EC16FD06A9F7E091B1
:100AA0003C01F0913D0182E08083E0913801F091BA
:100AB00039011082E0913A01F0913B018FEC808383
:100AC00010924401E0914001F091410186E0808361
:100AD000E0913E01F0913F01808180618083E0914F
:100AE0003E01F0913F01808188608083E0913E016A
:100AF000F0913F01808180688083E0913E01F09118
:100B00003F0180818F7D8083C0E0D0E08CE291E066
:100B10000E948901089714F00E9457022097B1F3B0
:100B20000E949501882391F30E940000EFCFECE230
:100B3000F1E01382128288EE93E0A0E0B0E08483BB
:100B40009583A683B78388E191E09183808385ECC8
:100B500090E09587848784EC90E09787868780EC87
:100B600090E0918B808B81EC90E0938B828B82EC78
:100B700090E0958B848B86EC90E0978B868B118E22
:100B8000128E138E148E0895EE0FFF1F0590F491B0
:080B9000E02D0994F894FFCF59
:100B98006400C8002C019001F4015802BC02200333
:100BA8008403E80300000000CB012B015801180260
:0C0BB800890167017B0108090A0B0C0D84
:00000001FF
