:100000000C9462000C948A000C948A000C948A0070
:100010000C948A000C948A000C948A000C948A0038
:100020000C948A000C948A000C948A000C948A0028
:100030000C948A000C948A000C948A000C948A0018
:100040000C948C040C948A000C94FC040C94D6043C
:100050000C948A000C948A000C948A000C948A00F8
:100060000C948A000C948A000000000024002700F1
:100070002A0000000000250028002B0000000000DE
:1000800023002600290004040404040404040202DA
:100090000202020203030303030301020408102007
:1000A0004080010204081020010204081020000012
:1000B0000008000201000003040700000000000027
:1000C0000000DD0511241FBECFEFD8E0DEBFCDBF9D
:1000D00011E0A0E0B1E0E4E2FCE002C005900D9286
:1000E000AE33B107D9F721E0AEE3B1E001C01D9214
:1000F000A43EB207E1F710E0C2E6D0E004C02197C9
:10010000FE010E940A06C136D107C9F70E942E05DA
:100110000C9410060C940000833081F028F4813098
:1001200099F08230A9F008958730A9F08830C9F09D
:100130008430B1F4809180008F7D03C08091800075
:100140008F7780938000089584B58F7784BD08955C
:1001500084B58F7DFBCF8091B0008F778093B00006
:1001600008958091B0008F7DF9CFCF93DF93282F32
:1001700030E0F901E255FF4F8491F901E656FF4F57
:10018000D491F901EA57FF4FC491CC23A1F081111A
:100190000E948C00EC2FF0E0EE0FFF1FE458FF4FA1
:1001A000A591B491EC91ED2381E090E009F480E019
:1001B000DF91CF91089580E090E0FACF1F93CF9325
:1001C000DF93282F30E0F901E255FF4F8491F901C8
:1001D000E656FF4FD491F901EA57FF4FC491CC2363
:1001E000A9F0162F81110E948C00EC2FF0E0EE0F89
:1001F000FF1FEE58FF4FA591B4918FB7F894EC9183
:10020000111108C0D095DE23DC938FBFDF91CF9111
:100210001F910895DE2BF8CFAF92BF92CF92DF925D
:10022000EF92FF920F931F93CF93DF936C017B01AB
:100230008B01040F151FEB015E01AE18BF08C0173C
:10024000D10759F06991D601ED91FC910190F081AF
:10025000E02DC6010995892B79F7C501DF91CF9172
:100260001F910F91FF90EF90DF90CF90BF90AF90D4
:100270000895FC01538D448D252F30E0842F90E0AC
:10028000821B930B541710F0CF9608950197089591
:10029000FC01918D828D981761F0A28DAE0FBF2F5A
:1002A000B11D5D968C91928D9F5F9F73928F90E0B0
:1002B00008958FEF9FEF0895FC01918D828D98171F
:1002C00031F0828DE80FF11D858D90E008958FEF5C
:1002D0009FEF0895FC01918D228D892F90E0805C25
:1002E0009F4F821B91098F73992708958EE391E0A8
:1002F0000E946A0121E0892B09F420E0822F0895F1
:1003000080E090E0892B29F00E94760181110C9405
:1003100000000895FC01A48DA80FB92FB11DA35AA8
:10032000BF4F2C91848D90E001968F739927848F15
:10033000A689B7892C93A089B1898C918370806438
:100340008C93938D848D981306C00288F389E02DD9
:1003500080818F7D80830895EF92FF920F931F938A
:10036000CF93DF93EC0181E0888F9B8D8C8D981368
:100370001AC0E889F989808185FF15C09FB7F89474
:10038000EE89FF896083E889F989808183708064C0
:1003900080839FBF81E090E0DF91CF911F910F910B
:1003A000FF90EF900895F62E0B8D10E00F5F1F4F1A
:1003B0000F731127E02E8C8D8E110CC00FB607FC29
:1003C000FACFE889F989808185FFF5CFCE010E94B7
:1003D0008A01F1CFEB8DEC0FFD2FF11DE35AFF4F9A
:1003E000F0829FB7F8940B8FEA89FB898081806245
:1003F000CFCFCF93DF93EC01888D8823B9F0AA8902
:10040000BB89E889F9898C9185FD03C0808186FDCF
:100410000DC00FB607FCF7CF8C9185FFF2CF80811E
:1004200085FFEDCFCE010E948A01E9CFDF91CF9108
:100430000895AC01FC018FEF9FEF70E09F01241B3A
:10044000350B261737079CF42191822728E030E0EE
:10045000DC01A170BB2796958795AB2B21F0A1E01D
:100460008A27A0EA9A272150310991F7E7CF08950A
:10047000EF92FF921F93CF93DF93EC017B011A81E0
:1004800063E0610F0E941902FE01E10FF11D8383F9
:10049000EA81EC0FFD2FF11D94838A818B5FF701B8
:1004A000808381E0DF91CF911F91FF90EF900895BD
:1004B000AF92BF92CF92DF92EF92FF920F931F9372
:1004C000CF93DF93CDB7DEB7C150D2400FB6F894CB
:1004D000DEBF0FBECDBF10E09BE8C92EDD24D39454
:1004E0008EE391E00E946A017C01892B91F08EE3FA
:1004F00091E00E94480121E0210FE1E0F0E0EC0FE3
:10050000FD1FE10FF11D8083C6010197F1F7122F46
:10051000E7CF183008F4AAC0B98021E0B212A6C013
:10052000C12ED12C6EEF610FCE0101960E941902EF
:10053000EFEFFFEFEC0FFD1FEC0DFD1D2081FE0125
:10054000EC0DFD1D308123273227232782179307C7
:1005500009F08CC08E010F5F1E4F80E091E0D80142
:10056000FC011D923197E9F7CF5FDD4F1882C15032
:10057000D2408A81833009F4C9C0B8F48130B1F126
:10058000823009F485C091E0D8019C93806811966F
:100590008C93119712969C9363E0C8010E941902F4
:1005A000F8018383948385E0F9C0853009F46DC137
:1005B00008F41BC1863039F78B819C8198278927E5
:1005C00098272D813E813227232732278A309105B3
:1005D00008F04CC0880F991FFC01E050FF4F318399
:1005E000208381E0D8018C9386E07BC1CB80DC80C6
:1005F000DC24CD24DC24AD80BE80BA24AB24BA2414
:10060000950121503109203D374080F596012A0D92
:100610003B1D215031092730310540F5D8018C931D
:1006200011968C93119712968C93F601EB5DFE4F09
:100630006F01D6018D916D010E94B50099270E2C96
:1006400001C0880F0A94EAF7F8019381892B83830C
:10065000FFEFEF1AFF0AEA14FB0459F7BE016F5FC0
:100660007D4FC8010E94380281119DC0CF5FDD4FD0
:100670000FB6F894DEBF0FBECDBFDF91CF911F91B3
:100680000F91FF90EF90DF90CF90BF90AF900895C3
:10069000CB80DC80DC24CD24DC24AD80BE80BA2479
:1006A000AB24BA2421EDA21627E0B206F8F6C50164
:1006B0008C0D9D1D0797D0F681E0D8018C9392E0B8
:1006C00011969C93119712968C93F601E05EFE4F63
:1006D0006F01EA14FB0499F0D6018D916D010E941F
:1006E000B50099270E2C01C0880F0A94EAF7F8018B
:1006F0009381892B8383FFEFEF1AFF0AEACFBE01B4
:100700006F5F7D4FC8010E943802AECFEB81FC8144
:10071000FE27EF27FE27CD80DE80DC24CD24DC24DD
:100720009F012C0D3D1D2B30310508F09FCFD801C6
:10073000BC9211968C931197BC2CBB0C1296BC9258
:100740001297EE0FFF1FE050FF4F1296CE14DF04FA
:1007500069F080819181329611969C93119712963F
:100760008C9312972FEFE21AF20AEFCF63E06B0D32
:10077000C8010E941902CC0CDD1CE4E0F1E0EC0F92
:10078000FD1FEC0DFD1D8083A5E0B1E0AC0FBD1F8A
:10079000CA0EDB1EF601908385E08B0DCF5FDD4F27
:1007A0008883C150D240CF5FDD4FD880C150D24046
:1007B00061E082E00E94DE0083E2E82EF12CC701B6
:1007C0000197F1F74D2D50E0B8018EE391E00E94C2
:1007D0000C018EE391E00E94F901C7010197F1F746
:1007E00060E082E00E94DE0041CFEB81FC81FE27C9
:1007F000EF27FE272D813E81322723273227213DF7
:1008000087E0380708F032CFC9018E0F9F1F079786
:1008100008F02CCF81E0D8018C9384E011968C9362
:100820001197822F880F12968C931297EE0FFF1F4D
:10083000EC5EFE4F2E153F0509F1808132968E3019
:1008400008F08E508770806480937C0080917A00DD
:10085000806480937A0080917A0086FDFCCF80913D
:1008600078009091790013969C93139714968C932B
:1008700014978FEFE81AF80A1296DCCFBE016F5F6B
:100880007D4FC8010E943802EFCE8B819C81982752
:1008900089279827ED80FE80FE24EF24FE248630F1
:1008A000910508F0E3CEE114F10441F0E114AFEF5B
:1008B000FA0609F0DBCEEE24E394F12C8A5D9E4F1C
:1008C000FC01D0806E2D8D2D0E94DE008D2D0E94AA
:1008D000B500E816F90609F0C9CE81E0D8018C937D
:1008E00085E011968C9311978B8112968C931297B9
:1008F0008C8113968C9313978D8114968C931497F7
:100900008E8115968C9366E0C8010E941902F80149
:100910008683978388E042CF1F920F920FB60F9283
:1009200011242F933F938F939F93AF93BF93809105
:10093000E0019091E101A091E201B091E3013091D9
:10094000DF0123E0230F2D3758F50196A11DB11DBE
:100950002093DF018093E0019093E101A093E201F5
:10096000B093E3018091DB019091DC01A091DD0166
:10097000B091DE010196A11DB11D8093DB01909322
:10098000DC01A093DD01B093DE01BF91AF919F9197
:100990008F913F912F910F900FBE0F901F90189540
:1009A00026E8230F0296A11DB11DD2CF1F920F92F0
:1009B0000FB60F9211242F933F934F935F936F9332
:1009C0007F938F939F93AF93BF93EF93FF938EE3A8
:1009D00091E00E948A01FF91EF91BF91AF919F91A9
:1009E0008F917F916F915F914F913F912F910F90D8
:1009F0000FBE0F901F9018951F920F920FB60F9277
:100A000011242F938F939F93EF93FF93E0914E01C7
:100A1000F0914F018081E0915401F091550182FDE8
:100A20001BC09081809157018F5F8F732091580177
:100A3000821741F0E0915701F0E0E25CFE4F958FA4
:100A400080935701FF91EF919F918F912F910F907C
:100A50000FBE0F901F9018958081F4CF789484B5C5
:100A6000826084BD84B5816084BD85B5826085BDAA
:100A700085B5816085BD80916E00816080936E0038
:100A8000109281008091810082608093810080912A
:100A900081008160809381008091800081608093DB
:100AA00080008091B10084608093B1008091B0009B
:100AB00081608093B00080917A00846080937A0096
:100AC00080917A00826080937A0080917A008160C0
:100AD00080937A0080917A00806880937A001092E7
:100AE000C100ECE9F0E02491E8E8F0E0849188238B
:100AF00099F090E0880F991FFC01E859FF4FA591EC
:100B0000B491FC01EE58FF4F859194918FB7F89402
:100B1000EC91E22BEC938FBF60E082E00E94DE005C
:100B200084B18F6384B917B81AB8E0914E01F0917F
:100B30004F0182E08083E0914A01F0914B011082E5
:100B4000E0914C01F0914D018FEC808310925601A1
:100B5000E0915201F091530186E08083E0915001D1
:100B6000F0915101808180618083E0915001F0918A
:100B70005101808188608083E0915001F0915101A2
:100B8000808180688083E0915001F09151018081E3
:100B90008F7D8083C0E0D0E08EE391E00E946A0107
:100BA000089714F00E9458022097B1F30E94760132
:100BB000882391F30E940000EFCFEEE3F1E013826F
:100BC000128288EE93E0A0E0B0E084839583A68350
:100BD000B78380E391E09183808385EC90E09587F3
:100BE000848784EC90E09787868780EC90E0918BF7
:100BF000808B81EC90E0938B828B82EC90E0958BE4
:100C0000848B86EC90E0978B868B118E128E138EE0
:100C1000148E0895EE0FFF1F0590F491E02D0994B6
:040C2000F894FFCF76
:100C24006400C8002C019001F4015802BC022003A6
:100C34008403E8030E000F001000110012001300DB
:100C440002030405060708090A0B0C0D0000000046
:0E0C5400AC010C013901F9016A0148015C0193
:00000001FF
