:020000040000FA
:100000000C9462000C948A000C948A000C948A0070
:100010000C948A000C948A000C948A000C948A0038
:100020000C948A000C948A000C948A000C948A0028
:100030000C948A000C948A000C948A000C948A0018
:100040000C948F040C948A000C94FF040C94D90433
:100050000C948A000C948A000C948A000C948A00F8
:100060000C948A000C948A000000000024002700F1
:100070002A0000000000250028002B0000000000DE
:1000800023002600290004040404040404040202DA
:100090000202020203030303030301020408102007
:1000A0004080010204081020010204081020000012
:1000B0000008000201000003040700000000000027
:1000C0000000DF0511241FBECFEFD8E0DEBFCDBF9B
:1000D00011E0A0E0B1E0ECE6FCE002C005900D927A
:1000E000A833B107D9F721E0A8E3B1E001C01D9220
:1000F000AE3DB207E1F710E0C2E6D0E004C02197C0
:10010000FE010E942E06C136D107C9F70E943105B3
:100110000C9434060C940000833081F028F4813074
:1001200099F08230A9F008958730A9F08830C9F09D
:100130008430B1F4809180008F7D03C08091800075
:100140008F7780938000089584B58F7784BD08955C
:1001500084B58F7DFBCF8091B0008F778093B00006
:1001600008958091B0008F7DF9CFCF93DF93282F32
:1001700030E0F901E255FF4F8491F901E656FF4F57
:10018000D491F901EA57FF4FC491CC23A1F081111A
:100190000E948C00EC2FF0E0EE0FFF1FE458FF4FA1
:1001A000A591B491EC91ED2381E090E009F480E019
:1001B000DF91CF91089580E090E0FACF1F93CF9325
:1001C000DF93282F30E0F901E255FF4F8491F901C8
:1001D000E656FF4FD491F901EA57FF4FC491CC2363
:1001E000A9F0162F81110E948C00EC2FF0E0EE0F89
:1001F000FF1FEE58FF4FA591B4918FB7F894EC9183
:10020000111108C0D095DE23DC938FBFDF91CF9111
:100210001F910895DE2BF8CFAF92BF92CF92DF925D
:10022000EF92FF920F931F93CF93DF936C017B01AB
:100230008B01040F151FEB015E01AE18BF08C0173C
:10024000D10759F06991D601ED91FC910190F081AF
:10025000E02DC6010995892B79F7C501DF91CF9172
:100260001F910F91FF90EF90DF90CF90BF90AF90D4
:100270000895FC01538D448D252F30E0842F90E0AC
:10028000821B930B541710F0CF9608950197089591
:10029000FC01918D828D981761F0A28DAE0FBF2F5A
:1002A000B11D5D968C91928D9F5F9F73928F90E0B0
:1002B00008958FEF9FEF0895FC01918D828D98171F
:1002C00031F0828DE80FF11D858D90E008958FEF5C
:1002D0009FEF0895FC01918D228D892F90E0805C25
:1002E0009F4F821B91098F739927089581E491E0B4
:1002F0000E946A0121E0892B09F420E0822F0895F1
:1003000080E090E0892B29F00E94760181110C9405
:1003100000000895FC01A48DA80FB92FB11DA35AA8
:10032000BF4F2C91848D90E001968F739927848F15
:10033000A689B7892C93A089B1898C918370806438
:100340008C93938D848D981306C00288F389E02DD9
:1003500080818F7D80830895EF92FF920F931F938A
:10036000CF93DF93EC0181E0888F9B8D8C8D981368
:100370001AC0E889F989808185FF15C09FB7F89474
:10038000EE89FF896083E889F989808183708064C0
:1003900080839FBF81E090E0DF91CF911F910F910B
:1003A000FF90EF900895F62E0B8D10E00F5F1F4F1A
:1003B0000F731127E02E8C8D8E110CC00FB607FC29
:1003C000FACFE889F989808185FFF5CFCE010E94B7
:1003D0008A01F1CFEB8DEC0FFD2FF11DE35AFF4F9A
:1003E000F0829FB7F8940B8FEA89FB898081806245
:1003F000CFCFCF93DF93EC01888D8823B9F0AA8902
:10040000BB89E889F9898C9185FD03C0808186FDCF
:100410000DC00FB607FCF7CF8C9185FFF2CF80811E
:1004200085FFEDCFCE010E948A01E9CFDF91CF9108
:100430000895AC01FC018FEF9FEF70E09F01241B3A
:10044000350B261737079CF42191822728E030E0EE
:10045000DC01A170BB2796958795AB2B21F0A1E01D
:100460008A27A0EA9A272150310991F7E7CF08950A
:10047000FC0101900020E9F73197AF01481B590BAF
:10048000BC0181E491E00C940C018F929F92AF9299
:10049000BF920F931F93CF93DF93CDB7DEB7A19792
:1004A0000FB6F894DEBF0FBECDBF19A2423008F4DC
:1004B0004AE08E010F5D1F4F842E912CB12CA12C90
:1004C000A50194010E940C06E62FB901CA01EA3089
:1004D000F4F4E05DD801EE938D01232B242B252B22
:1004E00079F790E080E0109719F0CD010E94380272
:1004F000A1960FB6F894DEBF0FBECDBFDF91CF91AE
:100500001F910F91BF90AF909F908F900895E95CDD
:10051000E1CF9F92AF92BF92CF92DF92EF92FF9284
:100520000F931F93CF93DF93CDB7DEB7D2500FB6A3
:10053000F894DEBF0FBECDBF10E05BE8E52EFF24D0
:10054000F39481E491E00E946A016C01892B91F09F
:1005500081E491E00E94480121E0210FE1E0F0E018
:10056000EC0FFD1FE10FF11D8083C7010197F1F72B
:10057000122FE7CF183008F412C10981013009F0B9
:100580000EC1E12EF12C6EEF610FCE0101960E949B
:100590001902EFEFFFEFEC0FFD1FEE0DFF1D2081A5
:1005A000FE01EE0DFF1D30812327322723278217FE
:1005B000930709F0F4C08A81833009F402C128F559
:1005C0008130B9F191E0CF5FDE4F9883C150D140C7
:1005D0008068CE5FDE4F8883C250D140CD5FDE4F52
:1005E0009883C350D14063E0CE018F5F9E4F0E943D
:1005F0001902CC5FDE4F8883C450D140CB5FDE4F01
:100600009883C550D14015E0ACC0853009F42BC1AA
:100610008630C1F62B813C813227232732272A30AE
:10062000310508F0BCC0CF5FDE4F0883C150D14018
:1006300047C1EB80FC80FE24EF24FE240D811E8147
:10064000102701271027980121503109203D3740FC
:1006500008F0A5C098012E0D3F1D2B30310508F084
:100660009EC0CF5FDE4F8883C150D140CE5FDE4F4A
:100670008883C250D14081E0980127703327232B13
:1006800009F480E0980143E0369527954A95E1F713
:10069000820FCD5FDE4F8883C350D14015B8F7017C
:1006A000ED5EFE4F7F01F70191907F01892D0E9441
:1006B000B5005C018CE291E00E943802692D70E087
:1006C00090E080E04AE00E94450282E391E00E94CF
:1006D00038026A2D70E090E080E04AE00E94450216
:1006E00085E391E00E943802BB240C2C01C0AA0CC7
:1006F0000A94EAF7CC5FDE4F8881C450D140A82A23
:10070000CC5FDE4FA882C450D140FFEFCF1ADF0A82
:100710000C151D0541F6CD5FDE4F1881C350D14049
:1007200063E0610FCE018F5F9E4F0E941902E4E0EB
:10073000F1E0EC0FFD1FE10FF11D8083CD5FDE4F77
:10074000E881C350D14025E031E02C0F3D1F2E0F32
:10075000311DF9019083CD5FDE4F1881C350D14028
:100760001B5F61E082E00E94DE0083E2E82EF12C54
:10077000C7010197F1F7412F50E0BE016F5F7E4F37
:1007800081E491E00E940C0181E491E00E94F90172
:10079000C7010197F1F760E082E00E94DE00DE5FB2
:1007A0000FB6F894DEBF0FBECDBFDF91CF911F9182
:1007B0000F91FF90EF90DF90CF90BF90AF909F9000
:1007C0000895EB81FC81FE27EF27FE27ED80FE8058
:1007D000FE24EF24FE2497012E0F3F1F2B303105FE
:1007E000F0F6CF5FDE4F0883C150D140CE5FDE4FC1
:1007F0008883C250D1401E2D110FCD5FDE4F18836C
:10080000C350D140EE0FFF1FE050FF4FDE01AF5F3E
:10081000BE4F1296EC14FD0469F0808191813296EE
:1008200011969C93119712968C9312973FEFC31ACF
:10083000D30AEFCF63E0610FCE018F5F9E4F0E941E
:100840001902EE0CFF1CE4E0F1E0EC0FFD1FEE0DD1
:10085000FF1D8083E5E0F1E0EC0FFD1FEE0EFF1EB3
:10086000F70190837DCF8B819C81982789279827DA
:100870000D811E811027012710278630910508F071
:100880008ECF0115110531F001151F4F09F087CFEB
:1008900001E010E08C5E9E4FFC01F080602F8F2DF8
:1008A0000E94DE008F2D0E94B5000817190709F07D
:1008B00076CF81E0CF5FDE4F8883C150D14085E0A5
:1008C000CE5FDE4F8883C250D1408B81CD5FDE4F3B
:1008D0008883C350D1408C81CC5FDE4F8883C45065
:1008E000D1408D81CB5FDE4F8883C550D1408E8152
:1008F000CA5FDE4F8883C650D14066E0CE018F5F6D
:100900009E4F0E941902C95FDE4F8883C750D140B5
:10091000C85FDE4F9883C850D14018E022CF1F92A5
:100920000F920FB60F9211242F933F938F939F93A3
:10093000AF93BF9380913D0190913E01A0913F0103
:10094000B091400130913C0123E0230F2D3758F541
:100950000196A11DB11D20933C0180933D01909310
:100960003E01A0933F01B0934001809138019091E6
:100970003901A0913A01B0913B010196A11DB11D31
:100980008093380190933901A0933A01B0933B01D1
:10099000BF91AF919F918F913F912F910F900FBE7B
:1009A0000F901F90189526E8230F0296A11DB11DE8
:1009B000D2CF1F920F920FB60F9211242F933F9315
:1009C0004F935F936F937F938F939F93AF93BF9357
:1009D000EF93FF9381E491E00E948A01FF91EF91F0
:1009E000BF91AF919F918F917F916F915F914F9147
:1009F0003F912F910F900FBE0F901F9018951F924F
:100A00000F920FB60F9211242F938F939F93EF9312
:100A1000FF93E0915101F09152018081E0915701E3
:100A2000F091580182FD1BC0908180915A018F5F27
:100A30008F7320915B01821741F0E0915A01F0E041
:100A4000EF5BFE4F958F80935A01FF91EF919F913D
:100A50008F912F910F900FBE0F901F90189580814E
:100A6000F4CF789484B5826084BD84B5816084BD00
:100A700085B5826085BD85B5816085BD80916E003C
:100A8000816080936E00109281008091810082606D
:100A900080938100809181008160809381008091AA
:100AA00080008160809380008091B1008460809399
:100AB000B1008091B00081608093B00080917A0095
:100AC000846080937A0080917A00826080937A00BB
:100AD00080917A00816080937A0080917A008068AA
:100AE00080937A001092C100ECE9F0E02491E8E8EC
:100AF000F0E08491882399F090E0880F991FFC0121
:100B0000E859FF4FA591B491FC01EE58FF4F859134
:100B100094918FB7F894EC91E22BEC938FBF60E047
:100B200082E00E94DE008FE384B980E285B9E09123
:100B30005101F091520182E08083E0914D01F091EA
:100B40004E011082E0914F01F09150018FEC8083B3
:100B500010925901E0915501F091560186E0808391
:100B6000E0915301F0915401808180618083E09194
:100B70005301F0915401808188608083E09153019A
:100B8000F0915401808180688083E0915301F0915D
:100B9000540180818F7D8083C0E0D0E081E491E0CA
:100BA0000E946A01089714F00E9489022097B1F30D
:100BB0000E947601882391F30E940000EFCFE1E4C8
:100BC000F1E01382128288EE93E0A0E0B0E084832B
:100BD0009583A683B7838EE191E09183808385EC32
:100BE00090E09587848784EC90E09787868780ECF7
:100BF00090E0918B808B81EC90E0938B828B82ECE8
:100C000090E0958B848B86EC90E0978B868B118E91
:100C1000128E138E148E0895A1E21A2EAA1BBB1BEE
:100C2000FD010DC0AA1FBB1FEE1FFF1FA217B307B8
:100C3000E407F50720F0A21BB30BE40BF50B661FCE
:100C4000771F881F991F1A9469F760957095809592
:100C500090959B01AC01BD01CF010895EE0FFF1FE0
:100C60000590F491E02D0994F894FFCF6400C8003A
:100C70002C019001F4015802BC0220038403E80314
:100C80000D0C0B0A090800000000AC010C01390131
:100C9000F9016A0148015C0150696E6F20003A2039
:040CA000000D0A0039
:107800000C94343C0C94513C0C94513C0C94513CE1
:107810000C94513C0C94513C0C94513C0C94513CB4
:107820000C94513C0C94513C0C94513C0C94513CA4
:107830000C94513C0C94513C0C94513C0C94513C94
:107840000C94513C0C94513C0C94513C0C94513C84
:107850000C94513C0C94513C0C94513C0C94513C74
:107860000C94513C0C94513C11241FBECFEFD8E036
:10787000DEBFCDBF11E0A0E0B1E0ECE9FFE702C060
:1078800005900D92A230B107D9F712E0A2E0B1E065
:1078900001C01D92AD30B107E1F70E942D3D0C945F
:1078A000CC3F0C94003C982F959595959595959582
:1078B000905D8F708A307CF0282F295A8091C0000B
:1078C00085FFFCCF9093C6008091C00085FFFCCF60
:1078D0002093C6000895282F205DF0CF982F809127
:1078E000C00085FFFCCF9093C6000895EF92FF92F1
:1078F0000F931F93EE24FF2487018091C00087FD22
:1079000017C00894E11CF11C011D111D81E4E8164B
:1079100082E4F8068FE0080780E0180770F3E09132
:107920000401F091050109958091C00087FFE9CF1E
:107930008091C6001F910F91FF90EF9008950E94D3
:10794000763C982F8091C00085FFFCCF9093C600B5
:1079500091362CF490330CF09053892F089597555D
:10796000892F08951F930E949F3C182F0E949F3CCF
:107970001295107F810F1F9108951F93182F882350
:1079800021F00E94763C1150E1F71F9108951F935A
:10799000182F0E94763C803249F0809103018F5F5E
:1079A000809303018530C1F01F9108958091C0003C
:1079B00085FFFCCF84E18093C6008091C00085FFE5
:1079C000FCCF1093C6008091C00085FFFCCF80E102
:1079D0008093C6001F910895E0910401F091050184
:1079E00009951F9108950E94763C803241F0809164
:1079F00003018F5F80930301853081F008958091AA
:107A0000C00085FFFCCF84E18093C6008091C00058
:107A100085FFFCCF80E18093C6000895E0910401CA
:107A2000F09105010995089540E951E08823A1F0FE
:107A30002D9A28EE33E0FA013197F1F721503040CA
:107A4000D1F72D9828EE33E0FA013197F1F7215064
:107A50003040D1F7815061F708953F924F925F9285
:107A60006F927F928F929F92AF92BF92CF92DF924E
:107A7000EF92FF920F931F93CF93DF93000080E16B
:107A80008093C4001092C50088E18093C10086E015
:107A90008093C2005098589A259A81E00E94143D24
:107AA00024E1F22E9EE1E92E85E9D82E0FE0C02ECA
:107AB00010E1B12EAA24A394B1E49B2EA6E58A2E50
:107AC000F2E57F2EE0E26E2E79E4572E63E5462E36
:107AD00050E5352E0E94763C8033B1F18133B9F107
:107AE000803409F46FC0813409F476C0823409F41B
:107AF00085C0853409F488C0803531F1823521F1A3
:107B0000813511F1853509F485C0863509F48DC0BC
:107B1000843609F496C0843709F403C1853709F423
:107B200072C1863709F466C0809103018F5F80932C
:107B30000301853079F6E0910401F0910501099582
:107B40000E94763C803351F60E94F33CC3CF0E94E2
:107B5000763C803249F78091C00085FFFCCFF092DF
:107B6000C6008091C00085FFFCCF9092C600809136
:107B7000C00085FFFCCF8092C6008091C00085FFC9
:107B8000FCCF7092C6008091C00085FFFCCF609250
:107B9000C6008091C00085FFFCCF5092C600809146
:107BA000C00085FFFCCF4092C6008091C00085FFD9
:107BB000FCCF3092C6008091C00085FFFCCFB09210
:107BC000C60088CF0E94763C863808F4BDCF0E945C
:107BD000763C0E94F33C7ECF0E94763C803809F4CC
:107BE0009CC0813809F40BC1823809F43CC1883942
:107BF00009F48FC080E00E94C73C6CCF84E10E94F2
:107C0000BD3C0E94F33C66CF85E00E94BD3C0E94D3
:107C1000F33C60CF0E94763C809306010E94763C44
:107C2000809307010E94F33C55CF0E94763C80333D
:107C300009F41DC183E00E94BD3C80E00E94C73C66
:107C400049CF0E94763C809309020E94763C809343
:107C5000080280910C028E7F80930C020E94763C79
:107C6000853409F415C18091080290910902892B8D
:107C700089F000E010E00E94763CF801E85FFE4FDA
:107C800080830F5F1F4F80910802909109020817AF
:107C9000190788F30E94763C803209F045CF809125
:107CA0000C0280FF01C16091060170910701660F0F
:107CB000771F7093070160930601A0910802B091AD
:107CC00009021097C9F0E8E0F1E09B01AD014E0F09
:107CD0005F1FF999FECF32BD21BD819180BDFA9A17
:107CE000F99A2F5F3F4FE417F50799F76A0F7B1F4B
:107CF00070930701609306018091C00085FFFCCF5F
:107D0000F092C6008091C00085FFFCCFB092C60003
:107D1000E1CE83E00E94C73CDDCE82E00E94C73CFA
:107D2000D9CE0E94763C809309020E94763C8093D3
:107D300008028091060190910701880F991F909386
:107D40000701809306010E94763C853409F4A6C0A1
:107D500080910C028E7F80930C020E94763C8032D0
:107D600009F0B8CE8091C00085FFFCCFF092C6002C
:107D7000609108027091090261157105B9F140E046
:107D800050E080910C02A82FA170B82FB27011C0E2
:107D9000BB2309F45CC0E0910601F0910701319624
:107DA000F0930701E09306014F5F5F4F46175707B7
:107DB000E8F4AA2369F3F999FECF209106013091E6
:107DC000070132BD21BDF89A90B58091C00085FFB2
:107DD000FCCF9093C6002F5F3F4F30930701209355
:107DE00006014F5F5F4F4617570718F38091C00099
:107DF00085FDE5CE8091C00085FFF8CFE0CE81E023
:107E00000E94C73C67CE0E94763C803209F08CCE3F
:107E10008091C00085FFFCCFF092C6008091C00029
:107E200085FFFCCFE092C6008091C00085FFFCCFAB
:107E3000D092C6008091C00085FFFCCFC092C600E2
:107E40008091C00085FFFCCFB092C60043CEE09188
:107E50000601F091070194918091C00085FFFCCF4D
:107E60009093C6009CCF80E10E94C73C33CE0E9415
:107E7000763C0E94763C182F0E94763C112309F430
:107E800083C0113009F484C08FE00E94C73C22CE29
:107E900080910C02816080930C02E5CE80910C02EF
:107EA000816080930C0259CF809107018823880F4D
:107EB000880B8A2180930B02809106019091070123
:107EC000880F991F90930701809306018091080203
:107ED00080FF09C080910802909109020196909359
:107EE000090280930802F894F999FECF1127E091D6
:107EF0000601F0910701C8E0D1E08091080290915D
:107F00000902103091F40091570001700130D9F34B
:107F100003E000935700E89500915700017001308D
:107F2000D9F301E100935700E89509901990009169
:107F3000570001700130D9F301E000935700E89534
:107F40001395103498F011270091570001700130FB
:107F5000D9F305E000935700E895009157000170B0
:107F60000130D9F301E100935700E895329602976A
:107F700009F0C7CF103011F00296E5CF112480919F
:107F8000C00085FFB9CEBCCE8EE10E94C73CA2CD19
:0E7F900085E90E94C73C9ECDF894FFCF80008B
:00000001FF
