:100000000C9462000C948A000C948A000C948A0070
:100010000C948A000C948A000C948A000C948A0038
:100020000C948A000C948A000C948A000C948A0028
:100030000C948A000C948A000C948A000C948A0018
:100040000C945F040C948A000C94CF040C94A904C3
:100050000C948A000C948A000C948A000C948A00F8
:100060000C948A000C948A000000000024002700F1
:100070002A0000000000250028002B0000000000DE
:1000800023002600290004040404040404040202DA
:100090000202020203030303030301020408102007
:1000A0004080010204081020010204081020000012
:1000B0000008000201000003040700000000000027
:1000C0000000AF0511241FBECFEFD8E0DEBFCDBFCB
:1000D00011E0A0E0B1E0ECE0FCE002C005900D9280
:1000E000A034B107D9F721E0A0E4B1E001C01D922E
:1000F000A63EB207E1F710E0C2E6D0E004C02197C7
:10010000FE010E94FE05C136D107C9F70E94010514
:100110000C9404060C940000833081F028F48130A4
:1001200099F08230A9F008958730A9F08830C9F09D
:100130008430B1F4809180008F7D03C08091800075
:100140008F7780938000089584B58F7784BD08955C
:1001500084B58F7DFBCF8091B0008F778093B00006
:1001600008958091B0008F7DF9CFCF93DF93282F32
:1001700030E0F901E255FF4F8491F901E656FF4F57
:10018000D491F901EA57FF4FC491CC23A1F081111A
:100190000E948C00EC2FF0E0EE0FFF1FE458FF4FA1
:1001A000A591B491EC91ED2381E090E009F480E019
:1001B000DF91CF91089580E090E0FACF1F93CF9325
:1001C000DF93282F30E0F901E255FF4F8491F901C8
:1001D000E656FF4FD491F901EA57FF4FC491CC2363
:1001E000A9F0162F81110E948C00EC2FF0E0EE0F89
:1001F000FF1FEE58FF4FA591B4918FB7F894EC9183
:10020000111108C0D095DE23DC938FBFDF91CF9111
:100210001F910895DE2BF8CFAF92BF92CF92DF925D
:10022000EF92FF920F931F93CF93DF936C017B01AB
:100230008B01040F151FEB015E01AE18BF08C0173C
:10024000D10759F06991D601ED91FC910190F081AF
:10025000E02DC6010995892B79F7C501DF91CF9172
:100260001F910F91FF90EF90DF90CF90BF90AF90D4
:100270000895FC01538D448D252F30E0842F90E0AC
:10028000821B930B541710F0CF9608950197089591
:10029000FC01918D828D981761F0A28DAE0FBF2F5A
:1002A000B11D5D968C91928D9F5F9F73928F90E0B0
:1002B00008958FEF9FEF0895FC01918D828D98171F
:1002C00031F0828DE80FF11D858D90E008958FEF5C
:1002D0009FEF0895FC01918D228D892F90E0805C25
:1002E0009F4F821B91098F739927089589E491E0AC
:1002F0000E946A0121E0892B09F420E0822F0895F1
:1003000080E090E0892B29F00E94760181110C9405
:1003100000000895FC01A48DA80FB92FB11DA35AA8
:10032000BF4F2C91848D90E001968F739927848F15
:10033000A689B7892C93A089B1898C918370806438
:100340008C93938D848D981306C00288F389E02DD9
:1003500080818F7D80830895EF92FF920F931F938A
:10036000CF93DF93EC0181E0888F9B8D8C8D981368
:100370001AC0E889F989808185FF15C09FB7F89474
:10038000EE89FF896083E889F989808183708064C0
:1003900080839FBF81E090E0DF91CF911F910F910B
:1003A000FF90EF900895F62E0B8D10E00F5F1F4F1A
:1003B0000F731127E02E8C8D8E110CC00FB607FC29
:1003C000FACFE889F989808185FFF5CFCE010E94B7
:1003D0008A01F1CFEB8DEC0FFD2FF11DE35AFF4F9A
:1003E000F0829FB7F8940B8FEA89FB898081806245
:1003F000CFCFCF93DF93EC01888D8823B9F0AA8902
:10040000BB89E889F9898C9185FD03C0808186FDCF
:100410000DC00FB607FCF7CF8C9185FFF2CF80811E
:1004200085FFEDCFCE010E948A01E9CFDF91CF9108
:100430000895AC01FC018FEF9FEF70E09F01241B3A
:10044000350B261737079CF42191822728E030E0EE
:10045000DC01A170BB2796958795AB2B21F0A1E01D
:100460008A27A0EA9A272150310991F7E7CF08950A
:10047000FC0101900020E9F73197AF01481B590BAF
:10048000BC0189E491E00C940C018F929F92AF9291
:10049000BF920F931F93CF93DF93CDB7DEB7A19792
:1004A0000FB6F894DEBF0FBECDBF19A2423008F4DC
:1004B0004AE08E010F5D1F4F842E912CB12CA12C90
:1004C000A50194010E94DC05E62FB901CA01EA30BA
:1004D000F4F4E05DD801EE938D01232B242B252B22
:1004E00079F790E080E0109719F0CD010E94380272
:1004F000A1960FB6F894DEBF0FBECDBFDF91CF91AE
:100500001F910F91BF90AF909F908F900895E95CDD
:10051000E1CF7F928F929F92AF92BF92CF92DF9264
:10052000EF92FF920F931F93CF93DF93CDB7DEB778
:10053000D2500FB6F894DEBF0FBECDBF10E0EBE88F
:10054000EE2EFF24F39489E491E00E946A015C019D
:10055000892B91F089E491E00E94480121E0210F6C
:10056000E1E0F0E0EC0FFD1FE10FF11D8083C7011A
:100570000197F1F7122FE7CF183008F402C19980E4
:1005800021E09212FEC0E12EF12C6EEF610FCE0140
:1005900001960E941902EFEFFFEFEC0FFD1FEE0D29
:1005A000FF1D2081FE01EE0DFF1D30812327322724
:1005B00023278217930709F0E4C08E010F5F1E4FB7
:1005C00080E091E0D801FC011D923197E9F78A8122
:1005D000833009F4EAC0A8F4813021F191E0F801F8
:1005E000908380688183928363E0C8010E9419022E
:1005F000D80113968C93139714969C9395E0F92E3B
:10060000A4C0853009F419C1863041F72B813C81A3
:100610003227232732272A30310508F0B2C0F801EB
:10062000908237C1EB80FC80FE24EF24FE24CD8035
:10063000DE80DC24CD24DC24960121503109203DCC
:10064000374008F09EC096012E0D3F1D2B3031051E
:1006500008F097C0D8018C9311968C9381E0960195
:1006600027703327232B09F480E0960173E0369539
:1006700027957A95E1F7820FF801828381E085B9A9
:1006800097012D5E3E4F7901D7017D907D01872D29
:100690000E94B5004C018CE291E00E943802672D67
:1006A00070E090E080E04AE00E9445028DE391E036
:1006B0000E943802682D70E090E080E04AE00E94DD
:1006C000450282E391E00E94380299240A2C01C07D
:1006D000880C0A94EAF7F8018381882A8382FFEF65
:1006E000AF1ABF0AAC14BD0479F685E391E00E940D
:1006F0003802D80113966C9170E090E080E040E100
:100700000E94450282E391E00E943802F801F280E3
:1007100063E06F0DC8010E941902E4E0F1E0EC0F04
:10072000FD1FEF0DF11D8083D8011296EC911297F9
:1007300025E031E02C0F3D1F2E0F311DF901908374
:1007400012964C9165E0F62EF40E61E082E00E9474
:10075000DE0083E2C82ED12CC6010197F1F74F2DA0
:1007600050E0B80189E491E00E940C0189E491E035
:100770000E94F901C6010197F1F760E082E00E9452
:10078000DE00DE5F0FB6F894DEBF0FBECDBFDF9197
:10079000CF911F910F91FF90EF90DF90CF90BF907E
:1007A000AF909F908F907F900895EB81FC81FE2702
:1007B000EF27FE27CD80DE80DC24CD24DC249601CB
:1007C0002E0F3F1F2B303105E0F6D8019C92119679
:1007D0008C931197FC2CFF0C1296FC921297EE0F43
:1007E000FF1FE050FF4F1296CA14DB0469F08081AE
:1007F0009181329611969C93119712968C93129731
:100800002FEFA21AB20AEFCF63E06F0DC8010E946A
:100810001902CC0CDD1CE4E0F1E0EC0FFD1FEC0D47
:10082000FD1D8083A5E0B1E0AC0FBD1FCA0EDB1E2D
:10083000F6019083F5E0FF0E88CF8B819C8198278D
:1008400089279827CD80DE80DC24CD24DC248630E7
:10085000910508F096CFC114D10441F0C1142FEFD7
:10086000D20609F08ECFCC24C394D12C8C5E9E4F3F
:10087000DC01FC906C2D8F2D0E94DE008F2D0E94DC
:10088000B500C816D90609F07CCF81E0F801808355
:1008900085E081838B8182838C8183838D818483B6
:1008A0008E81858366E0C8010E941902D8011696E0
:1008B0008C93169717969C9328E0F22E46CF1F92A2
:1008C0000F920FB60F9211242F933F938F939F9304
:1008D000AF93BF938091450190914601A09147014C
:1008E000B09148013091440123E0230F2D3758F592
:1008F0000196A11DB11D2093440180934501909361
:100900004601A0934701B093480180914001909126
:100910004101A0914201B09143010196A11DB11D79
:100920008093400190934101A0934201B093430111
:10093000BF91AF919F918F913F912F910F900FBEDB
:100940000F901F90189526E8230F0296A11DB11D48
:10095000D2CF1F920F920FB60F9211242F933F9375
:100960004F935F936F937F938F939F93AF93BF93B7
:10097000EF93FF9389E491E00E948A01FF91EF9148
:10098000BF91AF919F918F917F916F915F914F91A7
:100990003F912F910F900FBE0F901F9018951F92AF
:1009A0000F920FB60F9211242F938F939F93EF9373
:1009B000FF93E0915901F0915A018081E0915F012C
:1009C000F091600182FD1BC09081809162018F5F78
:1009D0008F7320916301821741F0E0916201F0E092
:1009E000E75BFE4F958F80936201FF91EF919F919E
:1009F0008F912F910F900FBE0F901F9018958081AF
:100A0000F4CF789484B5826084BD84B5816084BD60
:100A100085B5826085BD85B5816085BD80916E009C
:100A2000816080936E0010928100809181008260CD
:100A3000809381008091810081608093810080910A
:100A400080008160809380008091B10084608093F9
:100A5000B1008091B00081608093B00080917A00F5
:100A6000846080937A0080917A00826080937A001B
:100A700080917A00816080937A0080917A0080680A
:100A800080937A001092C100ECE9F0E02491E8E84C
:100A9000F0E08491882399F090E0880F991FFC0181
:100AA000E859FF4FA591B491FC01EE58FF4F859195
:100AB00094918FB7F894EC91E22BEC938FBF60E0A8
:100AC00082E00E94DE008FE384B980E285B9E09184
:100AD0005901F0915A0182E08083E0915501F09133
:100AE00056011082E0915701F09158018FEC8083FC
:100AF00010926101E0915D01F0915E0186E08083DA
:100B0000E0915B01F0915C01808180618083E091E4
:100B10005B01F0915C01808188608083E0915B01E2
:100B2000F0915C01808180688083E0915B01F091AD
:100B30005C0180818F7D8083C0E0D0E089E491E01A
:100B40000E946A01089714F00E9489022097B1F36D
:100B50000E947601882391F30E940000EFCFE9E420
:100B6000F1E01382128288EE93E0A0E0B0E084838B
:100B70009583A683B7838EE191E09183808385EC92
:100B800090E09587848784EC90E09787868780EC57
:100B900090E0918B808B81EC90E0938B828B82EC48
:100BA00090E0958B848B86EC90E0978B868B118EF2
:100BB000128E138E148E0895A1E21A2EAA1BBB1B4F
:100BC000FD010DC0AA1FBB1FEE1FFF1FA217B30719
:100BD000E407F50720F0A21BB30BE40BF50B661F2F
:100BE000771F881F991F1A9469F7609570958095F3
:100BF00090959B01AC01BD01CF010895EE0FFF1F41
:0C0C00000590F491E02D0994F894FFCFCA
:100C0C006400C8002C019001F4015802BC022003BE
:100C1C008403E8030D0C0B0A090800000000AC016A
:100C2C000C013901F9016A0148015C0150696E6FD0
:100C3C0020000D0A00526573706F6E73653A2000C8
:00000001FF
